{
  "contractName": "Oort",
  "abi": [
    {
      "constant": true,
      "inputs": [],
      "name": "totalSupply",
      "outputs": [
        {
          "name": "",
          "type": "uint256"
        }
      ],
      "payable": false,
      "stateMutability": "view",
      "type": "function"
    },
    {
      "inputs": [],
      "payable": false,
      "stateMutability": "nonpayable",
      "type": "constructor"
    }
  ],
  "bytecode": "0x6080604052348015600f57600080fd5b506305f5e100600081905550607b806100296000396000f3fe6080604052348015600f57600080fd5b506004361060285760003560e01c806318160ddd14602d575b600080fd5b60336049565b6040518082815260200191505060405180910390f35b6000548156fea165627a7a7230582042980b806d0a7f6c2dee0261cf2b73a40a8ae762aa7ea953040aa4f6d9e68d3d0029",
  "source": "pragma solidity ^0.5.0;\r\n\r\n\r\n/**\r\n * @title ERC20 interface\r\n * @dev see https://github.com/ethereum/EIPs/issues/20\r\n */\r\n/*\r\ninterface IERC20 {\r\n    function transfer(address to, uint256 value) external returns (bool);\r\n\r\n    function approve(address spender, uint256 value) external returns (bool);\r\n\r\n    function transferFrom(address from, address to, uint256 value) external returns (bool);\r\n\r\n    function totalSupply() external view returns (uint256);\r\n\r\n    function balanceOf(address who) external view returns (uint256);\r\n\r\n    function allowance(address owner, address spender) external view returns (uint256);\r\n\r\n    event Transfer(address indexed from, address indexed to, uint256 value);\r\n\r\n    event Approval(address indexed owner, address indexed spender, uint256 value);\r\n}*/\r\n\r\ncontract Oort{\r\n  // Constructor\r\n  // Set total token num\r\n  // Read total token num\r\n  uint256 public totalSupply;\r\n\r\n  constructor() public {\r\n    totalSupply = 100000000;\r\n  }\r\n\r\n}",
  "sourcePath": "C:/Users/Carter/Desktop/projects/Oort-ERC20/contracts/Oort.sol",
  "compiler": {
    "name": "solc",
    "version": "0.5.8+commit.23d335f2.Emscripten.clang"
  },
  "schemaVersion": "3.0.11",
  "updatedAt": "2019-06-29T23:43:06.483Z",
  "devdoc": {
    "details": "see https://github.com/ethereum/EIPs/issues/20\r",
    "methods": {},
    "title": "ERC20 interface\r"
  },
  "userdoc": {
    "methods": {}
  }
}